:020000040000FA
:040000000DEF00F010
:04000800AAEF00F06B
:10001800FF00F4EF00F00750D8A415EF00F017EF39
:1000280000F02DEF00F018EC01F0FF0AD8A41FEF44
:1000380000F021EF00F025EF00F0010E076E41EF10
:1000480000F018EC01F0026E02280CEC01F041EF10
:1000580000F018EC01F00009D8A435EF00F037EFF4
:1000680000F03BEF00F0000E076E41EF00F018ECD7
:1000780001F0026E02040CEC01F01200000EBE6EDC
:10008800000EBF6E000EC06E3F0EC66EF00EC76E3D
:10009800C86804011069B00E086F370E006F000EB3
:1000A800096F000E016F000E116F000E026F000E37
:1000B8000A6F000E126F370E036FF00E0B6F136985
:1000C8003F0E046FF00E0C6F14691200B6960550BF
:1000D8000610D8B472EF00F074EF00F081EF00F072
:1000E80002D881EF00F00500FA6E0550FD6E06504B
:1000F800FE6EF850FF6EFA5012001200010E030156
:10010800206F000E1F6F000E216F4D0E1D6F000E29
:100118001C6FB696AB863A0E036E020E046E07ECA1
:1001280001F0C00E03011E6F12001BEC01F0CAECB7
:1001380000F042EC00F0D8EC00F011EC01F001EC1A
:1001480001F082EC00F0E6EC00F01200ABA6AFEF95
:1001580000F0B1EF00F0BAEF00F0B6A6B6EF00F08D
:10016800B8EF00F0BAEF00F06AEC00F0110099EC7B
:1001780000F01E0E036E000E046E07EC01F0D68E22
:1001880015EC01F0C6EF00F00DEF00F0000E0001D5
:10019800636F000E646F000E656F000E666F000ED1
:1001A800676F000E686F1200620E0001AD6F000EDF
:1001B800AF6F000EB36F020EB16F000EB06F000E7E
:1001C800AC6F1200000E0001A46F250EA56F000E83
:1001D800A66F000EA76F000EA96F800EA36F120006
:1001E800076A0401080E5D6F000E5E6F000E5F6FF8
:1001F800000EF86E0001BBEF00F0880E0001A26F40
:10020800FA0EA06F120003C505F504C506F5120025
:10021800016E610004F4A0F01200840E0301D76F90
:10022800120003011E8F12000001A0511200D69A7D
:04023800120012009E
:020000040020DA
:10000000FF0FFF0FFF0FFF0FFF0FFF0FFF0FFF0F80
:10001000FF0FFF0FFF0FFF0FFF0FFF0FFF0FFF0F70
:020000040030CA
:0A000000ECFFF7FF9FFFFFFFFFFF7B
:00000001FF
