:040000000DEF00F010
:0400080048EF0BF0C2
:06001800FF00E2EF0BF017
:101600000068170000000000006818000000000ECD
:10161000BE6E000EBF6E000EC06E3F0EC66EF00EA8
:10162000C76EFB0EC86E370E0401006FF00E086F18
:101630001069000E016F000E096F000E116F000E91
:101640000201876F000E866F000E0401026F000E0C
:101650000A6F000E126F370E036FF00E0B6F1369D7
:101660003F0E046FF00E0C6F1469000E056F000E34
:10167000066F000E076F000E0D6F000E0E6F000E4E
:101680000F6F000E156F000E166F000E176F120011
:10169000FAC40AF5FBC40BF5A8AE51EF0BF053EFFB
:1016A0000BF05CEF0BF0B3AE58EF0BF05AEF0BF012
:1016B0005CEF0BF051EC0CF0ABA661EF0BF063EFBD
:1016C0000BF06CEF0BF0B6A668EF0BF06AEF0BF0C7
:1016D0006CEF0BF0CBEC0BF00BC5FBF40AC5FAF486
:1016E00011000F50D8B477EF0BF079EF0BF089EFC2
:1016F0000BF01E0E0E18D8A480EF0BF082EF0BF04B
:1017000086EF0BF0000E0F6E96EF0BF00E2A96EFA1
:101710000BF00E50D8A48FEF0BF091EF0BF095EF7C
:101720000BF0010E0F6E96EF0BF00E060E504CEC08
:101730000CF01200D69AB490D680000E0C6E000EFB
:101740000D6E43EC0CF0B990D682000E0C6E000EBC
:101750000D6E3EEC0CF0BD90D684000E0C6E000EAB
:101760000D6E39EC0CF01200040E0301206F000E18
:101770001F6F000E216F300E1D6F000E1C6FA00E2C
:101780000C6E180E0D6E34EC0CF0B696AB86D00EC7
:1017900003011E6F1200B69601500210D8B4D3EFA9
:1017A0000BF0D5EF0BF0E1EF0BF002D8E1EF0BF00F
:1017B0000500FA6E0150FD6E0250FE6EFF6AFA508F
:1017C00012001200A40EF66E180EF76E000EF86EE0
:1017D0000900F5C40FF50E6A0401080E5D6F000ED6
:1017E0005E6F000E5F6F000121EF0CF013EC0CF048
:1017F00007EC0BF02EEC0CF048EC0CF005EC0CF0C8
:10180000B4EC0BF09AEC0BF01200010E0001A46F87
:10181000250EA56F000EA66F000EA76F000EA96F14
:10182000800EA36F1200620E0001AD6F000EAF6F4D
:10183000000EB36F020EB16F000EB06F000EAC6FF2
:101840001200F6EC0BF0E20E0C6E160E0D6E34EC80
:101850000CF0D68E2AEF0CF00DEF00F0880E000190
:10186000A26FFA0EA06F12000CC501F50DC502F5AE
:1018700012000CC503F50DC504F512000CC505F5E5
:101880000DC506F512000CC507F50DC508F51200CB
:10189000C40E0301D76F1200096E09C5A0F0120033
:0518A00012001200011E
:020000040020DA
:10000000FF0FFF0FFF0FFF0FFF0FFF0FFF0FFF0F80
:10001000FF0FFF0FFF0FFF0FFF0FFF0FFF0FFF0F70
:10002000FF0FFF0FFF0FFF0FFF0FFF0FFF0FFF0F60
:10003000FF0FFF0FFF0FFF0FFF0FFF0FFF0FFF0F50
:020000040030CA
:0A000000ECFFF7FF9FFFFFFFFFFF7B
:00000001FF
