:020000040000FA
:040000000DEF00F010
:04000800B7EF00F05E
:10001800FF007CEF00F0BE6ABF6AC06A3F0EC66E82
:10002800F00EC76EC86804011069B00E086F370E6D
:10003800006F096B016B116B026B0A6B126B370E49
:10004800036FF00E0B6F13693F0E046FF00E0C6F09
:100058001469120007500DE1CEEC00F0FF0A03E12D
:10006800010E076E010CCEEC00F0026E0228C2EF02
:1000780000F0CEEC00F0000902E1076A1200CEECB5
:1000880000F0026E0204C2EF00F0010E0301206FBF
:100098001F6B216B4D0E1D6F1C6BB696AB86A60EA3
:1000A800036E010E046EBDEC00F0C00E03011E6F5E
:1000B800C00CD1EC00F0A9EC00F00FEC00F095ECCE
:1000C80000F0C7EC00F0B1EC00F049EC00F09FEF55
:1000D80000F0B69605500610D8B412000500FA6E66
:1000E8000550FD6E0650FE6EF850FF6EFA50120075
:1000F800076A0401080E5D6F000E5E6F000E5F6FE9
:10010800000EF86E000189EF00F05DEC00F05C0E67
:10011800036E000E046EBDEC00F0D68ECBEC00F042
:10012800FFD7620E0001AD6FAF6BB36B020EB16FFC
:10013800B06BAC6B12000001A46B250EA56FA66B0B
:10014800A76BA96B800EA36F800C0001636B646BB7
:10015800656B666B676B686B1200880E0001A26F97
:10016800FA0EA06FFA0CABB6B6A611006DEC00F053
:10017800110003C505F504C506F51200016E6100FE
:1001880004F4A0F01200840E0301D76F840C03015D
:100198001E8F12000001A0511200D69A1200120000
:020000040020DA
:10000000FF0FFF0FFF0FFF0FFF0FFF0FFF0FFF0F80
:10001000FF0FFF0FFF0FFF0FFF0FFF0FFF0FFF0F70
:020000040030CA
:0A000000ECFFF7FF9FFFFFFFFFFF7B
:00000001FF
