:040000000DEF00F010
:0400080079EF00F09C
:10001800FF003CEF00F0BE6ABF6AC06A3F0EC66EC2
:10002800F00EC76EFB0EC86E370E0401006FF00E9F
:10003800086F1069016B096B116B0201876B866B86
:100048000401026B0A6B126B370E036FF00E0B6F15
:1000580013693F0E046FF00E0C6F1469056B066B85
:10006800076B0D6B0E6B0F6B156B166B176B120016
:10007800E40EF66E010EF76E000EF86E0900F5C478
:1000880009F5086A0401080E5D6F000E5E6F000E28
:100098005F6F000EF86E0001C6EF00F0D69AB490BC
:1000A800D680000E046A056AEFEC00F0B990D6829B
:1000B800000E046A056AEEEC00F0BD90D684046A6E
:1000C800056A000C040E0301206F1F6B216B300EB4
:1000D8001D6F1C6BE00E046E010E056EE0EC00F067
:1000E800B696AB86D00E1E6FD00CFAC402F5FBC4D0
:1000F80003F5A8BEB3AE02D0F1EC00F0ABB6B6A6DD
:1001080002D09EEC00F003C5FBF402C5FAF411001E
:10011800095007E01E0E081802E1096A08D0082AEB
:1001280006D0085003E1010E096E01D008060850F8
:10013800E9EF00F0B69606500710D8B41200050093
:10014800FA6E0650FD6E0750FE6EF850FF6EFA50BC
:100158001200D0EC00F00FEC00F0DAEC00F0E5EC67
:1001680000F0BBEC00F066EC00F052EF00F0010E7E
:100178000001A46F250EA56FA66BA76BA96B800E57
:10018800A36F800CADEC00F0180E046E010E056E26
:10019800E0EC00F0D68EFFD7620E0001AD6FAF6BBA
:1001A800B36B020EB16FB06BAC6B1200880E00011E
:1001B800A26FFA0EA06FFA0C04C506F505C507F57F
:1001C8001200C40E0301D76FC40C016E01C5A0F064
:0D01D80012001200120012001200120001AD
:020000040020DA
:10000000FF0FFF0FFF0FFF0FFF0FFF0FFF0FFF0F80
:10001000FF0FFF0FFF0FFF0FFF0FFF0FFF0FFF0F70
:10002000FF0FFF0FFF0FFF0FFF0FFF0FFF0FFF0F60
:10003000FF0FFF0FFF0FFF0FFF0FFF0FFF0FFF0F50
:020000040030CA
:0A000000ECFFF7FF9FFFFFFFFFFF7B
:00000001FF
